:100000000C9490000C94B8000C94B8000C949E07CB
:100010000C949E070C949E070C94B8000C94B800A6
:100020000C94B8000C94B8000C94B8000C94B80070
:100030000C94B8000C94B8000C94B8000C94B80060
:100040000C94EE0C0C94B8000C944E060C94D2094F
:100050000C94B8000C94B8000C94B8000C94B80040
:100060000C9418080C94B80008000000BE922449B3
:10007000123EABAAAA2ABECDCCCC4C3E00000080DA
:10008000BEABAAAAAA3E00000000BF000000803F4D
:100090000000000000084178D3BB4387D1133D190D
:1000A0000E3CC3BD4282AD2B3E68EC8276BED98F3A
:1000B000E1A93E4C80EFFFBE01C4FF7F3F0000007E
:1000C0000000000000080002010000030407000017
:1000D00000000000000000000000230026002900AE
:1000E00000000000240027002A0000000000250076
:1000F00028002B0004040404040404040202020285
:1001000002020303030303030102040810204080DA
:10011000010204081020010204081020B512380D55
:1001200011241FBECFEFD8E0DEBFCDBF11E0A0E0AD
:10013000B1E0EEE4FEE202C005900D92A43EB107EC
:10014000D9F724E0A4EEB1E001C01D92A731B207B7
:10015000E1F710E0CFE8D0E004C02197FE010E9453
:100160000017CE38D107C9F70E94540D0C941A1706
:100170000C940000FC01538D448D252F30E0842F1A
:1001800090E0821B930B541710F0CF9608950197BF
:100190000895FC01918D828D981761F0828DDF01A9
:1001A000A80FB11D5D968C91928D9F5F9F73928F6A
:1001B00090E008958FEF9FEF0895FC01918D828D5F
:1001C000981731F0828DE80FF11D858D90E008952C
:1001D0008FEF9FEF0895FC01918D228D892F90E084
:1001E000805C9F4F821B91098F739927089580E04F
:1001F00090E0892B29F00E94C80981110C9400001D
:1002000008954F925F926F927F928F929F92AF92DA
:10021000BF92CF92DF92EF92FF920F931F93CF93F3
:10022000DF934B015C018091910290919202A09129
:100230009302B091940288159905AA05BB0509F4AB
:10024000D2C08CE3C82ED12CE12CF12CC501B40115
:10025000A70196010E94B8166093A302CA01B901D2
:10026000A70196010E94B8166093A402C501B401CB
:1002700020E13EE040E050E00E94B816CA01B9011A
:1002800028E130E040E050E00E94B8166093A502FB
:10029000C501B40120E831E541E050E00E94B81604
:1002A00069017A01CA01B9016C5F7F4F8F4F9F4F7F
:1002B00027E030E040E050E00E94B8166F5F6093A6
:1002C000A602412C512C320140E004E610E0C0E9C6
:1002D000D1E0242F30E02E54384FF901E370FF278E
:1002E000309789F4C901B8010E94A416892B31F412
:1002F000C901BE010E94A416892B29F48EE691E063
:10030000A0E0B0E004C08DE691E0A0E0B0E0480ECF
:10031000591E6A1E7B1ED301C201AA27BB27C8161D
:10032000D906EA06FB0610F04F5FD3CF4093A9022F
:10033000309799F4C90164E670E00E94A416892BF5
:1003400039F4C90160E971E00E94A416892B29F4EF
:100350008EE691E0A0E0B0E004C08DE691E0A0E080
:10036000B0E0481A590A6A0A7B0AC418D508E60898
:10037000F708C90164E670E00E94A416EC01C90107
:1003800060E971E00E94A416A2E3B1E020E0213010
:1003900039F4309749F4209729F4009729F402C0E2
:1003A0004C9103C04DE101C04CE150E060E070E0D1
:1003B000C416D506E606F70640F0C41AD50AE60AC2
:1003C000F70A2F5F11962C3011F72F5F2093A802A8
:1003D000C394C092A7028092910290929202A0923E
:1003E0009302B0929402DF91CF911F910F91FF90F1
:1003F000EF90DF90CF90BF90AF909F908F907F90C5
:100400006F905F904F9008952091AC023091AD02B3
:100410002817390771F49091AA028091AB029817BE
:1004200041F0E091AA02F0E0EF5AFD4F808190E0A8
:1004300008958FEF9FEF089508951F93CF93DF9353
:10044000DC015C968D919C915D97009739F421E0D9
:1004500030E013963C932E9312973BC05196ED914A
:10046000FC91529750962C915097322F30951FB790
:100470005E964C915E97742F727041FD6095F89472
:100480004081772311F0422B01C043234083EC01CC
:100490002197F1F748E0508160FF02C0522B01C064
:1004A00053235083EC012197F1F76695415099F75A
:1004B0008081772319F08323808302C0282B208337
:1004C0001FBF5C968D919C915D970197F1F781E03C
:1004D00090E0DF91CF911F9108952091AC0230916F
:1004E000AD022817390771F48091AB022091AA025E
:1004F00090E0805C9F4F821B910960E470E00E9455
:10050000A416089580E090E008952091AC02309107
:10051000AD0228173907B9F49091AA028091AB0275
:10052000981789F0E091AA02F0E0EF5AFD4F808120
:100530002091AA0230E02F5F3F4F2F733327209383
:10054000AA0290E008958FEF9FEF089585ED8093C4
:10055000BC008091BC0084FDFCCF10922B0208955A
:1005600040910702262F30E0240F311D2132310542
:10057000DCF420912B022430C9F4FC0180E090E0EF
:10058000861758F4309107022191DC01A951BE4F22
:10059000A30FB11D2C930196F3CF80910702680F32
:1005A0006093070280E0089581E0089582E0089555
:1005B0008FEF9FEF08958FEF9FEF08958091E601F1
:1005C00090E09195819591090895CF93DF93CB01A8
:1005D000EA01642F0E94B002CE01DF91CF9108950D
:1005E000CF93DF931F92CDB7DEB7698361E0CE0171
:1005F00001960E94B00281E090E00F90DF91CF91D0
:100600000895089580E090E008950F931F93CF938D
:10061000DF932091E5012F5F322F37703093E50192
:1006200020FF02C020E801C020E031FD20643470CA
:1006300009F02062205FFC01EC01239600E011E04C
:100640006485662331F070E0C8010E94A4166F5FD4
:1006500001C060E06187322F369F030E30E0311D0C
:100660001124311102C0168202C031503683662334
:1006700011F0615061873196CE17DF0709F7DF91DE
:10068000CF911F910F91089580E991E00895569AB6
:1006900008950F931F93CF93DF93CDB7DEB7629783
:1006A0000FB6F894DEBF0FBECDBF8C01F901DC019F
:1006B0001C968C917A8369835C834B835E834D8324
:1006C00090819D8791819E8792819F87813029F4B7
:1006D000CE0101960E94050306C01C861B861A8661
:1006E000198618861F8283E0888B1A8A198AD80196
:1006F000ED91FC910484F585E02DBE016F5F7F4F85
:10070000C801099562960FB6F894DEBF0FBECDBF43
:10071000DF91CF911F910F9108950F931F93CF9366
:10072000DF93CDB7DEB762970FB6F894DEBF0FBE8A
:10073000CDBF8C01F901DC011C968C917A83698311
:100740005C834B835E834D8390819D8791819E87DF
:1007500092819F87813029F4CE0101960E94050382
:1007600006C01C861B861A86198618861F82188A60
:100770001A8A198AD801ED91FC910484F585E02D3F
:10078000BE016F5F7F4FC801099562960FB6F8945E
:10079000DEBF0FBECDBFDF91CF911F910F910895A6
:1007A00080E090E00895FC01858596850895CF93BB
:1007B000DF9300D000D000D0CDB7DEB7AB011C82F4
:1007C0001D821E82DC01ED91FC910190F081E02DF3
:1007D00019821A821B829E012F5F3F4FBE016C5F00
:1007E0007F4F099526960FB6F894DEBF0FBECDBF9A
:1007F000DF91CF9108954F925F926F927F928F9287
:10080000AF92BF92CF92DF92EF920F931F93CF934D
:10081000DF933C01EB010E946C0AF30127853089CC
:10082000621B730B6A307105B0F3F894E881F981AB
:100830007BB170646BB16F7B6BB9CA848F812C2DD7
:10084000281B822F2F83BF844A805B801D850C85E7
:10085000DE841F5F0F5FD3949E813885A984EB846B
:100860004181D20120E0C32F522F322F3181442702
:1008700088943111380F08F43FEF8195889410FD6A
:10088000430F4795889411FD430F4795889412FDB7
:10089000430F4795889413FD430F4795889414FDA3
:1008A000430F4795889415FD430F4795889416FD8F
:1008B000430F4795889417FD430F47958894232F3E
:1008C0001111242F8C0D422F002C7BB900C047FF43
:1008D0006BB930812227889400C000C0002C6BB90E
:1008E0003111390F00C0002C7BB900C046FF6BB935
:1008F00008F43FEF9195889400C000C0002C6BB9BC
:1009000000FD230F00C0002C7BB900C045FF6BB970
:100910002795889401FD230F00C000C0002C6BB9FF
:100920002795889400C0002C7BB900C044FF6BB9A8
:1009300002FD230F2795889400C000C0002C6BB9DE
:1009400003FD230F00C0002C7BB900C043FF6BB92F
:100950002795889404FD230F00C000C0002C6BB9BC
:100960002795889400C0002C7BB900C042FF6BB96A
:1009700005FD230F2795889400C000C0002C6BB99B
:1009800006FD230F00C0002C7BB900C041FF6BB9EE
:100990002795889407FD230F00C000C0002C6BB979
:1009A0002795889400C0002C7BB900C040FF6BB92C
:1009B000432F0111422F9A0D00C000C0002C6BB9CB
:1009C00000C000C0002C7BB900C047FF6BB932816A
:1009D0002227889400C000C0002C6BB931113C0F55
:1009E00000C0002C7BB900C046FF6BB908F43FEF94
:1009F000EB0DF11D00C000C0002C6BB9D0FC230F23
:100A000000C0002C7BB900C045FF6BB927958894C6
:100A1000D1FC230F00C000C0002C6BB9279588942F
:100A200000C0002C7BB900C044FF6BB9D2FC230F7F
:100A30002795889400C000C0002C6BB9D3FC230F0D
:100A400000C0002C7BB900C043FF6BB92795889488
:100A5000D4FC230F00C000C0002C6BB927958894EC
:100A600000C0002C7BB900C042FF6BB9D5FC230F3E
:100A70002795889400C000C0002C6BB9D6FC230FCA
:100A800000C0002C7BB900C041FF6BB9279588944A
:100A9000D7FC230F00C000C0002C6BB927958894A9
:100AA00000C0002C7BB900C040FF6BB9432FD110B0
:100AB000422FC19500C000C0002C6BB9CE0D00C004
:100AC00000C07BB900C047FF6BB9318122278894F1
:100AD00000C000C0002C6BB93111380F00C0002CD1
:100AE0007BB900C046FF6BB908F43FEF819588944D
:100AF00000C000C0002C6BB910FD230F00C0002CFB
:100B00007BB900C045FF6BB92795889411FD230F71
:100B100000C000C0002C6BB92795889400C0002C41
:100B20007BB900C044FF6BB912FD230F2795889451
:100B300000C000C0002C6BB913FD230F00C0002CB7
:100B40007BB900C043FF6BB92795889414FD230F30
:100B500000C000C0002C6BB92795889400C0002C01
:100B60007BB900C042FF6BB915FD230F2795889410
:100B700000C000C0002C6BB916FD230F00C0002C74
:100B80007BB900C041FF6BB92795889417FD230FEF
:100B900000C000C0002C6BB92795889400C0002CC1
:100BA0007BB900C040FF6BB9432F1111422F8C0D50
:100BB00000C000C0002C6BB9119709F086CE20EE62
:100BC00031E0D2010E94DA16DC01CB01F4E0B695E7
:100BD000A79597958795FA95D1F720E030E0B90170
:100BE000EAE94E9E040C611D5E9E600D711D11248C
:100BF000650D711D860F971FA11DB11D893E43E034
:100C00009407A105B10508F434C0885E9340A1099A
:100C1000B10942E0B695A795979587954A95D1F782
:100C200047E0849F080E211D949F200D311D112443
:100C3000290F311D6091E40170E0860F971F820F2C
:100C4000931F4091270350912803609129037091CD
:100C50002A03292F3327420F531F611D711D409313
:100C60002703509328036093290370932A038093EA
:100C7000E40178940E946C0AF301708B6787DF911E
:100C8000CF911F910F91EF90DF90CF90BF90AF90D9
:100C90008F907F906F905F904F9008951F920F926A
:100CA0000FB60F9211242F938F939F93EF93FF937F
:100CB000E0913D03F0913E038081E0914303F09188
:100CC000440382FD12C09081809146038F5F8F7331
:100CD00020914703821751F0E0914603F0E0E35D75
:100CE000FC4F958F8093460301C08081FF91EF9167
:100CF0009F918F912F910F900FBE0F901F9018957D
:100D0000FC01848DDF01A80FB11DA35ABF4F2C91A8
:100D1000848D90E001968F739927848FA689B78977
:100D20002C93A089B1898C91837080648C93938D6E
:100D3000848D981306C00288F389E02D80818F7D11
:100D400080830895EF92FF920F931F93CF93DF93C9
:100D5000EC0181E0888F9B8D8C8D981305C0E8890C
:100D6000F989808185FD26C0F62E0B8D10E00F5F7E
:100D70001F4F0F731127E02E8C8DE8120CC00FB699
:100D800007FCFACFE889F989808185FFF5CFCE018C
:100D90000E948006F1CF8B8DFE01E80FF11DE35A12
:100DA000FF4FF0829FB7F8940B8FEA89FB8980810F
:100DB00080620AC09FB7F894EE89FF896083E88952
:100DC000F98980818370806480839FBF81E090E097
:100DD000DF91CF911F910F91FF90EF900895CF93E6
:100DE000DF93EC01888D8823C9F0EA89FB89808133
:100DF00085FD05C0A889B9898C9186FD0FC00FB605
:100E000007FCF5CF808185FFF2CFA889B9898C9145
:100E100085FFEDCFCE010E948006E7CFDF91CF9115
:100E2000089560939F027093A0028093A102909313
:100E3000A202DC01CB01845D9E4FAF4FBF4F809378
:100E40009B0290939C02A0939D02B0939E0282E02D
:100E500090E090939A02809399020E94CB0A60934B
:100E6000950270939602809397029093980208954A
:100E7000CF92DF92EF92FF920F931F930E94CB0AC3
:100E8000009195021091960220919702309198025C
:100E90006B017C01C01AD10AE20AF30A60919F0239
:100EA0007091A0028091A1029091A20248EEC41616
:100EB00043E0D406E104F104D0F0DC01CB0101965B
:100EC000A11DB11D80939F029093A002A093A10247
:100ED000B093A20208511C4F2F4F3F4F0093950231
:100EE000109396022093970230939802C7CF1F91D8
:100EF0000F91FF90EF90DF90CF9008950E943807F8
:100F00000E9401018091A80290E008950E94380794
:100F10000E9401018091A70290E008950E94380785
:100F20000E9401018091A40290E008950E94380778
:100F30000E9401018091A50290E008951F920F92F6
:100F40000FB60F9211242F933F934F935F936F939C
:100F50007F938F939F93AF93BF93EF93FF93E09112
:100F6000AC02F091AD02309709F451C0968DA68580
:100F7000B785858591FF04C09C91892329F447C0DA
:100F80009C91892309F043C0A389B4899C918589E8
:100F9000809589238C93868997890197F1F7608DD5
:100FA000718DA685B785558538E020E0CB01019786
:100FB000F1F7822F90E095958795282F4C91452346
:100FC00009F02068315091F7868D81FD2095809140
:100FD000AB0290E001968F7399273091AA023817DF
:100FE00049F0A091AB02B0E0AF5ABD4F2C93809373
:100FF000AB0203C0868D8160868F828D938D0197B1
:10100000F1F7A389B4899C918589892B8C93FF91F1
:10101000EF91BF91AF919F918F917F916F915F9170
:101020004F913F912F910F900FBE0F901F901895E9
:101030001F920F920FB60F9211242F933F934F934D
:101040005F936F937F938F939F93AF93BF93EF9330
:10105000FF938091B900887F803609F49CC068F5C1
:10106000883209F45BC090F4803109F454C038F43C
:10107000882309F4F2C0883009F44DC0F2C08831E9
:1010800009F44CC0803209F45DC0EBC0803409F42F
:1010900068C048F4803309F455C0883309F0E1C0D2
:1010A00080932A02D4C0803509F44FC0883509F4F2
:1010B0005DC0883409F0D5C0D2C0883909F4C3C0F6
:1010C000A8F4883709F467C038F4883609F463C097
:1010D000803709F460C0C5C0883809F4B4C08039CD
:1010E00009F45FC0803809F0BCC05BC0803B09F4E4
:1010F00084C038F4803A09F466C0883A09F47DC0A7
:10110000B0C0803C09F4A3C0883C09F4A0C0883B6F
:1011100009F486C0A6C08091500210C090914F0281
:1011200080914E02981770F5E0914F0281E08E0F8A
:1011300080934F02F0E0E25DFD4F80818093BB0021
:1011400085EC82C080932A028AC0E0914F0281E040
:101150008E0F80934F028091BB00F0E0E25DFD4F67
:10116000808390914F0280914E026AC0E0914F02BD
:1011700081E08E0F80934F028091BB00F0E0E25D32
:10118000FD4F808380912D02811169C081E08093A1
:101190002C0284EA5DC083E080932B021092290226
:1011A000CFCF80912902803208F04DC0E091290212
:1011B00081E08E0F809329028091BB00F0E0E75F11
:1011C000FD4F8083BDCF85EC8093BC0010922B0235
:1011D00080912902803230F4E0912902F0E0E75F4B
:1011E000FD4F10826091290270E089E092E0E0E01A
:1011F000F0E009951092290234C084E080932B021C
:101200001092080210920702E0E0F0E00995809148
:101210000702811105C081E0809307021092E70167
:10122000E091080281E08E0F80930802F0E0E9511E
:10123000FE4F80818093BB0090910802809107024D
:10124000981708F47DCF85E88093BC000AC085EC30
:101250008093BC0010922B0204C010922A020E94BC
:10126000A602FF91EF91BF91AF919F918F917F91D6
:101270006F915F914F913F912F910F900FBE0F9003
:101280001F901895EF92FF920F931F93CF93DF93C8
:10129000CDB7DEB760970FB6F894DEBF0FBECDBFF7
:1012A00020E1E0E0F1E0DE01119601900D922A9537
:1012B000E1F7E1E0F0E0EC0FFD1FE60FF71F208102
:1012C00030E07091F903A091FA03B091FB03FC01A7
:1012D000EE0FFF1F8E0F9F1FFC01E255FD4F80E0B8
:1012E00090E001E010E0A801082E02C0440F551F55
:1012F0000A94E2F77901E422F5224E155F0521F404
:101300004B2F5A2F672F03C040E050E060E060830E
:1013100051834283019633968730910521F7609679
:101320000FB6F894DEBF0FBECDBFDF91CF911F91F6
:101330000F91FF90EF900895CF92DF92EF92FF927E
:101340000F931F93CF93DF936C017A018B01C0E061
:10135000D0E0CE15DF0581F0D8016D918D01D60169
:10136000ED91FC910190F081E02DC6010995892B4A
:1013700011F02196EECF7E01C701DF91CF911F9131
:101380000F91FF90EF90DF90CF9008950E94151776
:101390008DE293E00E94EB0021E0892B09F420E02C
:1013A000822F08951F920F920FB60F9211242F9340
:1013B0003F934F935F936F937F938F939F93AF93DD
:1013C000BF93EF93FF938DE293E00E948006FF911D
:1013D000EF91BF91AF919F918F917F916F915F91AD
:1013E0004F913F912F910F900FBE0F901F90189526
:1013F000009769F0FC0101900020E9F73197AF01F7
:10140000481B590BBC0187ED93E00C949C0980E0CC
:1014100090E008958F929F92AF92BF920F931F9387
:10142000CF93DF93CDB7DEB7A1970FB6F894DEBFA9
:101430000FBECDBF19A2423008F44AE08E010F5D05
:101440001F4F842E912CA12CB12CA50194010E9438
:10145000B816E62FB901CA0101501109EA3014F497
:10146000E05D01C0E95CD801EC93232B242B252BF4
:1014700061F7C8010E94F809A1960FB6F894DEBF83
:101480000FBECDBFDF91CF911F910F91BF90AF9055
:101490009F908F900895CF92DF92EF92FF92CF931B
:1014A000DF936B017C016DE287ED93E00E941D02EA
:1014B000EC0166277727CB016C197D098E099F09FE
:1014C0004AE00E940A0A8C0F9D1FDF91CF91FF9086
:1014D000EF90DF90CF9008953FB7F8948091FD038F
:1014E0009091FE03A091FF03B091000426B5A89B44
:1014F00005C02F3F19F00196A11DB11D3FBFBA2FA6
:10150000A92F982F8827820F911DA11DB11DBC0105
:10151000CD0142E0660F771F881F991F4A95D1F7CA
:1015200008958F929F92AF92BF92CF92DF92EF92E7
:10153000FF926B017C010E946C0A4B015C01C1149B
:10154000D104E104F104F1F00E946C0ADC01CB014A
:1015500088199909AA09BB09883E9340A105B105DC
:1015600070F321E0C21AD108E108F10888EE880E74
:1015700083E0981EA11CB11CC114D104E104F10444
:1015800019F7DDCFFF90EF90DF90CF90BF90AF9035
:101590009F908F9008952FB7F894609127037091D2
:1015A00028038091290390912A032FBF0895CF9299
:1015B000DF92EF92FF920F931F930E94CB0A8B0151
:1015C0009C01E0910504F091060488EE93E0E89F09
:1015D000B001E99F700DF89F700D1124072E000CCB
:1015E000880B990BC0900704D0900804E090090480
:1015F000F0900A04A90198012C193D094E095F09D0
:101600000E94B8163093CC032093CB0310920604AB
:10161000109205040E94CB0A60930704709308049B
:101620008093090490930A041F910F91FF90EF900B
:10163000DF90CF9008953F924F925F926F927F928A
:101640008F929F92AF92BF92CF92DF92EF92FF92D2
:101650000F931F93CF93DF9300D01F92CDB7DEB7C8
:10166000F82E8091CD039091CE03A091CF03B0913D
:10167000D003892B8A2B8B2BE9F00E946C0A0091F6
:101680000104109102042091030430910404DC0150
:10169000CB01801B910BA20BB30B0091CD031091DA
:1016A000CE032091CF033091D00380179107A2077A
:1016B000B307B8F20E946C0A6093010470930204AD
:1016C0008093030490930404E091D503F091D60332
:1016D000309759F04091D1035091D2036091D303D8
:1016E0007091D4038F2D0995F82E00912B03109142
:1016F0002C034F2C512C612C712C0115110509F470
:101700005FC0D8011C96EC901C978091CB03909100
:10171000CC038436910510F41C961C92D801ED91EF
:10172000FC91A080B18019821A821B82F11014C032
:10173000F801458556859E012F5F3F4F69EF73E0A5
:10174000C801F5010995D8011C96EC921C971496D6
:101750000D911C911597D1CFF8013696CE010196C7
:101760006C01480199E0890E911C2191222309F115
:1017700032803320F1F0822F90E0A0E0B0E09C01B5
:10178000AD012F5F3F4F4F4F5F4FC301B2010E942A
:1017900094169B01AC01832D90E0A0E0B0E0BC0169
:1017A000CD016F5F7F4F8F4F9F4F0E949416D601E0
:1017B0008C93BFEFCB1ADB0AE815F905B1F6B8CF69
:1017C00080910504909106049C012F5F3F4F309358
:1017D000060420930504499714F00E94D70A0F903D
:1017E0000F900F90DF91CF911F910F91FF90EF908D
:1017F000DF90CF90BF90AF909F908F907F906F9031
:101800005F904F903F9008953F924F925F926F92FA
:101810007F928F929F92AF92BF92CF92DF92EF9280
:10182000FF920F931F93CF93DF9300D01F92CDB7FA
:10183000DEB7F090CA038091CD039091CE03A091C2
:10184000CF03B091D003892B8A2B8B2BE9F00E9418
:101850006C0A00910104109102042091030430915C
:101860000404DC01CB01801B910BA20BB30B009194
:10187000CD031091CE032091CF033091D003801778
:101880009107A207B307B8F20E946C0A60930104A3
:10189000709302048093030490930404E091D503B1
:1018A000F091D603309759F04091D1035091D20373
:1018B0006091D3037091D4038F2D0995F82E009178
:1018C0002B0310912C034F2C512C612C712C0115E2
:1018D000110509F45FC0D8011C96EC901C9780910B
:1018E000CB039091CC038436910510F41C961C9286
:1018F000D801ED91FC91A280B38019821A821B82DB
:10190000F11014C0F80145855685628173819E01EE
:101910002F5F3F4FC801F5010995D8011C96EC9245
:101920001C9714960D911C911597D1CFF8013696FE
:10193000CE0101966C01480199E0890E911C21911C
:10194000222309F132803320F1F0822F90E0A0E0D1
:10195000B0E09C01AD012F5F3F4F4F4F5F4FC30180
:10196000B2010E9494169B01AC01832D90E0A0E08F
:10197000B0E0BC01CD016F5F7F4F8F4F9F4F0E9442
:101980009416D6018C93BFEFCB1ADB0AE815F90544
:10199000B1F6B8CF80910504909106049C012F5FA9
:1019A0003F4F3093060420930504499714F00E949A
:1019B000D70A0F900F900F90DF91CF911F910F9149
:1019C000FF90EF90DF90CF90BF90AF909F908F905F
:1019D0007F906F905F904F903F9008951F920F926D
:1019E0000FB60F9211242F933F938F939F93AF9332
:1019F000BF938091270390912803A0912903B09170
:101A00002A033091FC0323E0230F2D3720F40196A5
:101A1000A11DB11D05C026E8230F0296A11DB11D11
:101A20002093FC038093270390932803A09329031A
:101A3000B0932A038091FD039091FE03A091FF03D0
:101A4000B09100040196A11DB11D8093FD039093F8
:101A5000FE03A093FF03B0930004BF91AF919F9149
:101A60008F913F912F910F900FBE0F901F9018955F
:101A700086E691E09093D8038093D7038091AC02DF
:101A80009091AD02875D934071F4E091EA03F0918B
:101A9000EB0390818091EC038095892380831092E1
:101AA000AD021092AC020895789484B5826084BD32
:101AB00084B5816084BD85B5826085BD85B5816052
:101AC00085BD80916E00816080936E0010928100D0
:101AD000809181008260809381008091810081608B
:101AE000809381008091800081608093800080914C
:101AF000B10084608093B1008091B00081608093D8
:101B0000B00080917A00846080937A0080917A009E
:101B1000826080937A0080917A00816080937A005D
:101B200080917A00806880937A001092C1000E94B0
:101B3000CB0A6B017C0161E070E080E090E00E94E4
:101B4000910A0E94040C0E94CB0ADC01CB018C1983
:101B50009D09AE09BF09883B9B40A105B10558F31B
:101B600080911B03811145C010920D0310920C034C
:101B70008FEF80931003809311038093120380935F
:101B80001303809314038093150381E0809316035D
:101B9000109218031092170310920F0310920E0365
:101BA00080912B0390912C03892B31F48AE093E0F0
:101BB00090932C0380932B03E0910803F091090389
:101BC000309721F08AE093E0958384838AE093E064
:101BD000909309038093080310921A03109219033B
:101BE00084E291E090930B0380930A0381E0809359
:101BF0001B03569A8EEA92E090930D0380930C0398
:101C00008EE190E090931803809317038091CD03A9
:101C10009091CE03A091CF03B091D003843C29E0F2
:101C20009207A105B10520F484EC99E0A0E0B0E0B2
:101C30008093CD039093CE03A093CF03B093D003B2
:101C4000E0913D03F0913E0382E08083E09139030F
:101C5000F0913A031082E0913B03F0913C038FEC4A
:101C6000808310924503E0914103F091420386E0A6
:101C70008083E0913F03F091400380818061808305
:101C8000E0913F03F0914003808188608083E09180
:101C90003F03F0914003808180688083E0913F039F
:101CA000F091400380818F7D808380E38093A9023F
:101CB0008BE08093A80287E18093A70291E1909343
:101CC000A5028093A4021092A30222EB37E0C12C5C
:101CD00048EAD42E49E3E42E4AE5F42EE4E6F0E0A7
:101CE000C0E9D1E0C90183709927892B99F4C90112
:101CF000BF010E94A416892B31F4C901BE010E94C4
:101D0000A416892B39F480E8C80E81E5D81E81E03D
:101D1000E81EF11C2F5F3F4F223E87E0380711F786
:101D2000E2E3F1E0A191B0E020E831E541E050E0EC
:101D30000E94E116C60ED71EE81EF91E21E0EC3304
:101D4000F20781F7C701B6016C587A40824E9F4F67
:101D50000E9411071092F2031092F1031092F00307
:101D60001092EF031092EE031092ED038DE991E0D3
:101D70009093F4038093F3039091E303963108F07A
:101D800058C02DEB30E03093EE032093ED032BE9A8
:101D900031E03093F0032093EF032CE231E03093F5
:101DA000F2032093F10340916800983058F031E03D
:101DB0009E3008F430E021E0822F01C0880F3A9570
:101DC000EAF701C084E0842B80936800983038F0F3
:101DD0009E3040F0963148F020E030E008C02DE61B
:101DE00030E005C02BE630E002C02CE630E0309356
:101DF000EB032093EA03983030F481E001C0880FB0
:101E00009A95EAF70EC0292F30E09E3018F428503A
:101E1000310902C02E50310981E001C0880F2A9596
:101E2000EAF78093EC038091F3039091F403019718
:101E3000F1F78091F1039091F203892B49F1E09140
:101E4000AC02F091AD0283E0E73DF80709F130976D
:101E500039F0A389B4899C918589809589238C93D5
:101E60008091F5038E7F8093F5031092AB02109260
:101E7000AA0287ED93E09093AD028093AC02E091CB
:101E8000EA03F091EB0390818091EC03892B80832E
:101E9000CAE0D0E08AE2282E1FEF9FE7392E00E843
:101EA0006CE070E087E190E00E9442096DE070E034
:101EB00080E190E00E9442096EE070E087E090E0EF
:101EC0000E94420960E070E080E090E00E944209D8
:101ED0002091F6032093D8029091F7039093D902B2
:101EE0008091F8038093DA022093DB029093DC0266
:101EF0008093DD020E94040C87ED93E00E946D0246
:101F0000892B09F4E2C287ED93E00E9485028333B6
:101F100009F473C01CF5813351F1823309F0D5C245
:101F200086E891E00E94F8090E9496074C010E9401
:101F300096075C010E948E076C010E948E077C014F
:101F4000C401BE010E94A41687E190E00E944209EC
:101F5000C501BE010E94A416BC0125C0853309F449
:101F600001C20CF48AC1863309F46CC2AEC284E7A4
:101F700091E00E94F8090E9496075C010D971CF001
:101F80008CE0A81AB1080E948E076C010E948E078F
:101F90007C01C501BE010E94A4165C0187E190E0AE
:101FA0000E944209B50180E190E00E944209C60109
:101FB000BE010E94A41687E090E00E944209C7017A
:101FC000BE010E94A416BC0180E090E00E9442097C
:101FD0002091F9032093D8029091FA039093D902AB
:101FE0008091FB038093DA022093DB029093DC0262
:101FF0008093DD020E94040CB0C188E991E00E9448
:10200000F80920E420937C0080917A00806480931A
:102010007A0080917A0086FDFCCF609178008091F3
:10202000790070E0782B072E000C880B990B0E942A
:10203000E8149B01AC0160E070EC8FE794E40E942F
:102040003E1420E030E040E85FE30E94CC139B01A7
:10205000AC0160E070E48CE196E40E943E1420E064
:1020600030E44CE156E40E943E140E94A51520E0A5
:1020700030E443E855E40E943E142FE03FEC4BE58A
:102080005BE30E94CD139B01AC0160E070E080E84F
:102090009FE30E943E1423E333E948E853E40E949F
:1020A000CC136B017C014B015C0120E030E040E28D
:1020B00051E40E943E140E94B01487E190E00E9417
:1020C0004209C701B6010E94B014CB01BE010E94B3
:1020D000A416BC0180E190E00E9442096AE070E031
:1020E00087E090E00E9442096BE070E080E090E0C1
:1020F0000E9442092091F6032093D8029091F703A1
:102100009093D9028091F8038093DA022093DB0246
:102110009093DC028093DD020E94040CA7019601DB
:10212000C701B6010E945A16882319F08DEA91E082
:102130001AC026013701E89477F82FEF3FEF4FE7F9
:102140005FE7C301B2010E945A1681110FC02FEF41
:102150003FEF4FE75FE7C301B2010E943914181641
:102160002CF481EB91E00E94F80978C02FEF3FEF4B
:102170004FE75FE4C701B6010E94981518161CF4DA
:1021800085EB91E0F0CF2FEF3FEF4FE75FECC7011A
:10219000B6010E94391487FDF3CF20E030E0A90199
:1021A000C701B6010E94391487FF0BC06DE287EDAD
:1021B00093E00E941D0246015701B7FAB094B7F8A8
:1021C000B0942AE037ED43EA5BE3C501B4010E9415
:1021D000CD134B015C010E94B7146B017C010E947E
:1021E000E6149B01AC01C501B4010E94CC134B0164
:1021F0005C014AE0C701B6010E940A0A6EE287ED5F
:1022000093E00E941D0220E030E040E251E4C5016D
:10221000B4010E94ED154B015C010E94B7146B01E3
:10222000E12CF12C4AE0C701B6010E940A0AC7015D
:10223000B6010E94E6149B01AC01C501B4010E94E5
:10224000CC1320E030E040E251E40E94ED150E9402
:10225000B71480E090E04AE00E940A0A89EB91E01E
:102260000E94F80982EC91E00E94F80960EF7AE0A0
:1022700080E090E00E94910A70C00E947E074C01AD
:102280000E947E075C010E9486076C010E948607FF
:102290007C01C401BE010E94A41687E190E00E9467
:1022A0004209C501BE010E94A416BC0180E190E074
:1022B0000E944209C601BE010E94A41687E090E078
:1022C0000E944209C701BE010E94A416BC0180E021
:1022D00090E00E9442098091F9038093D802809196
:1022E000FA038093D9028091FB038093DA028091F4
:1022F000F6038093DB028091F7038093DC028091E8
:10230000F8038093DD020E94040C85EC91E00E94AA
:10231000F8090E947E07BC01990F880B990B97FF63
:1023200003C00E944B0A03C04AE00E940A0A8FECD5
:1023300091E00E94F8090E948607BC01990F880B62
:10234000990B97FF03C00E944B0A03C04AE00E940A
:102350000A0A82EC91E00E94F80968EB7BE080E0D9
:1023600090E0B1C08091250390912603019690934F
:102370002603809325038130910539F40093F903F6
:102380001092FA030093FB035AC08230910529F49E
:102390001093F9031092FA0308C08330910541F4B9
:1023A0001093F90385EA8093FA031092FB0347C068
:1023B0008430910529F41093F9031093FA03F5CFB3
:1023C0008530910529F41092F9030093FA03EDCFBB
:1023D0008630910539F41092F9031092FA031093A4
:1023E000FB032DC08730910539F42BE42093F903CA
:1023F0001092FA0382E813C08830910541F43092BC
:10240000F9031093FA0324ED2093FB0318C08930DD
:10241000910541F41093F9033092FA0380E580931B
:10242000FB030DC00A9759F425EA2093F903209283
:10243000FA032092FB031092260310922503809149
:10244000CA033BC08091230390912403019690938B
:1024500024038093230381ED91E00E94F80982EC2C
:1024600091E00E94F8098091230390912403813028
:10247000910511F483E004C08230910521F48FE0CE
:102480008093CA031AC08330910529F421E4209374
:10249000CA0381E412C08430910521F40093CA0379
:1024A00080E80BC0059741F41093CA0310922403EF
:1024B000109223038FEF01C080E00E941B0B64E6A3
:1024C00070E080E090E00E94910A0E94F700E8CC62
:1024D00090E0FC01EE53FF4F2491FC01E85FFE4FBA
:1024E0003491FC01EC50FF4FE491EE2309F43CC021
:1024F000222339F1233091F038F42130A9F0223031
:1025000001F584B58F7D12C0273091F02830A1F0FD
:102510002430B9F4809180008F7D03C080918000C9
:102520008F77809380000DC084B58F7784BD09C0FC
:102530008091B0008F7703C08091B0008F7D809331
:10254000B000F0E0EE0FFF1FE651FF4FA591B491F0
:102550009FB7F894611104C08C913095382302C064
:10256000EC913E2B3C939FBF0895CF93DF93109245
:10257000300310922F0388EE93E0A0E0B0E0809348
:10258000310390933203A0933303B093340322E4D6
:1025900031E030932E0320932D0325EC30E030936F
:1025A0003A032093390324EC30E030933C0320932A
:1025B0003B0320EC30E030933E0320933D0321ECBD
:1025C00030E03093400320933F0322EC30E030931F
:1025D00042032093410326EC30E0309344032093E0
:1025E000430310924603109247031092480310923F
:1025F000490310920E0410920D0480930F049093DF
:102600001004A0931104B093120424E531E0309338
:102610000C0420930B042FEF2093CA031092CC03D9
:102620001092CB031092D6031092D5034FEF5FEFB9
:10263000BA014093D1035093D2036093D3037093B4
:10264000D40320E82093F9031092FA032093FB03AC
:102650001092F6031092F7031092F8031092DA0327
:102660001092D9038093DB039093DC03A093DD03E6
:10267000B093DE0386E691E09093D8038093D7036E
:102680001092EE031092ED031092F0031092EF03FC
:102690001092F2031092F1031092F4031092F303DC
:1026A0006091F5036E7F6D7F6093F50366956170B1
:1026B00081E0682783E00E946812EBE0F1E024915A
:1026C000E7EFF0E08491882399F090E0880F991F5C
:1026D000FC01E052FF4FA591B491FC01E651FF4F80
:1026E000859194918FB7F894EC91E22BEC938FBF86
:1026F000EBE0F1E0E491E093E703E7EFF0E0E49151
:10270000F0E0EE0FFF1FE651FF4F859194919093FB
:10271000E9038093E803EAE0F1E02491E6EFF0E0DA
:1027200084918823C1F090E0880F991FFC01E0524A
:10273000FF4FC591D491FC01E651FF4FA591B49193
:102740009FB7F8948881E22FE0958E2388838C913F
:10275000E823EC939FBF8091F50381FD04C061E005
:1027600082E00E94681282E08093E303EAE0F1E0F5
:10277000E491E093E403E6EFF0E0E491F0E0EE0FA3
:10278000FF1FEA52FF4F859194919093E603809347
:10279000E503DF91CF9108955058BB27AA270E94E7
:1027A000E4130C945E150E94501538F00E945715E2
:1027B00020F039F49F3F19F426F40C944D150EF4D3
:1027C000E095E7FB0C944715E92F0E946F1558F32D
:1027D000BA17620773078407950720F079F4A6F506
:1027E0000C9491150EF4E0950B2EBA2FA02D0B0131
:1027F000B90190010C01CA01A0011124FF27591B46
:1028000099F0593F50F4503E68F11A16F040A22F4B
:10281000232F342F4427585FF3CF469537952795BC
:10282000A795F0405395C9F77EF41F16BA0B620BBB
:10283000730B840BBAF09150A1F0FF0FBB1F661F02
:10284000771F881FC2F70EC0BA0F621F731F841F45
:1028500048F4879577956795B795F7959E3F08F06B
:10286000B0CF9395880F08F09927EE0F979587952D
:1028700008950E94231508F481E008950E945214DF
:102880000C945E150E94571558F00E94501540F0A8
:1028900029F45F3F29F00C94471551110C949215BF
:1028A0000C944D150E946F1568F39923B1F35523CD
:1028B00091F3951B550BBB27AA2762177307840753
:1028C00038F09F5F5F4F220F331F441FAA1FA9F3E9
:1028D00035D00E2E3AF0E0E832D091505040E695D7
:1028E000001CCAF72BD0FE2F29D0660F771F881F38
:1028F000BB1F261737074807AB07B0E809F0BB0B2B
:10290000802DBF01FF2793585F4F3AF09E3F51053E
:1029100078F00C9447150C9492155F3FE4F3983EC1
:10292000D4F3869577956795B795F7959F5FC9F727
:10293000880F911D9695879597F90895E1E0660FA8
:10294000771F881FBB1F621773078407BA0720F021
:10295000621B730B840BBA0BEE1F88F7E09508958A
:102960000E94B7146894B1110C94921508950E94B6
:10297000771588F09F5798F0B92F9927B751B0F085
:10298000E1F0660F771F881F991F1AF0BA95C9F7F3
:1029900014C0B13091F00E949115B1E008950C94EB
:1029A0009115672F782F8827B85F39F0B93FCCF39E
:1029B000869577956795B395D9F73EF49095809570
:1029C000709561957F4F8F4F9F4F0895E89409C090
:1029D00097FB3EF490958095709561957F4F8F4F52
:1029E0009F4F9923A9F0F92F96E9BB279395F69568
:1029F000879577956795B795F111F8CFFAF4BB0FE6
:102A000011F460FF1BC06F5F7F4F8F4F9F4F16C049
:102A1000882311F096E911C0772321F09EE8872FD3
:102A2000762F05C0662371F096E8862F70E060E08F
:102A30002AF09A95660F771F881FDAF7880F969508
:102A4000879597F90895990F0008550FAA0BE0E8AC
:102A5000FEEF16161706E807F907C0F01216130660
:102A6000E407F50798F0621B730B840B950B39F4A0
:102A70000A2661F0232B242B252B21F408950A2606
:102A800009F4A140A6958FEF811D811D089597F946
:102A90009F6780E870E060E008959FEF80EC089504
:102AA00000240A941616170618060906089500242D
:102AB0000A9412161306140605060895092E0394A7
:102AC000000C11F4882352F0BB0F40F4BF2B11F41B
:102AD00060FF04C06F5F7F4F8F4F9F4F089557FD7A
:102AE0009058440F551F59F05F3F71F04795880F7C
:102AF00097FB991F61F09F3F79F087950895121613
:102B000013061406551FF2CF4695F1DF08C01616BE
:102B100017061806991FF1CF86957105610508946F
:102B20000895E894BB2766277727CB0197F9089586
:102B30000E94231508F48FEF089516F00C945F1689
:102B40000C944D1568940C9447150E947715A8F3C2
:102B50009923C1F3AEF3DF93CF931F930F93FF92AB
:102B6000C92FDD2788232AF02197660F771F881F3A
:102B7000DAF720E030E040E85FEB9FE3883920F0AF
:102B8000803E38F021968F770E94CD13E8E6F0E082
:102B900004C00E94CD13E5E9F0E00E946D168B01A0
:102BA000BE01EC01FB2E6F5771097595771F880BDD
:102BB000990B0E94E81428E132E741E35FE30E94A9
:102BC0000016AF2D9801AE01FF900F911F91CF918C
:102BD000DF910E94E4130C945E150E9400160C9481
:102BE0005E150E94501538F00E94571520F095236D
:102BF00011F00C9447150C944D1511240C9492155A
:102C00000E946F1570F3959FC1F3950F50E0551F0B
:102C1000629FF001729FBB27F00DB11D639FAA2731
:102C2000F00DB11DAA1F649F6627B00DA11D661F80
:102C3000829F2227B00DA11D621F739FB00DA11DA1
:102C4000621F839FA00D611D221F749F3327A00D5B
:102C5000611D231F849F600D211D822F762F6A2FF7
:102C600011249F5750409AF0F1F088234AF0EE0F5C
:102C7000FF1FBB1F661F771F881F91505040A9F789
:102C80009E3F510580F00C9447150C9492155F3FC0
:102C9000E4F3983ED4F3869577956795B795F795C5
:102CA000E7959F5FC1F7FE2B880F911D969587953D
:102CB00097F908950E942315880B990B08959F3F5B
:102CC00031F0915020F4879577956795B795880FE7
:102CD000911D9695879597F90895DF93CF931F934C
:102CE0000F93FF92EF92DF927B018C01689406C0F4
:102CF000DA2EEF010E940016FE01E894A5912591BD
:102D0000359145915591A6F3EF010E94E413FE0120
:102D10009701A801DA9469F7DF90EF90FF900F9187
:102D20001F91CF91DF910895DB018F939F930E94B4
:102D3000E116BF91AF91A29F800D911DA39F900DB1
:102D4000B29F900D1124089597FB072E16F400945E
:102D500007D077FD09D00E94EC1607FC05D03EF4A1
:102D6000909581959F4F0895709561957F4F089537
:102D7000A1E21A2EAA1BBB1BFD010DC0AA1FBB1F7F
:102D8000EE1FFF1FA217B307E407F50720F0A21BF1
:102D9000B30BE40BF50B661F771F881F991F1A945E
:102DA00069F760957095809590959B01AC01BD0188
:102DB000CF0108950E940617B7FF0895821B930B59
:102DC00008950E940617A59F900DB49F900DA49F93
:102DD000800D911D11240895AA1BBB1B51E107C052
:102DE000AA1FBB1FA617B70710F0A61BB70B881F9B
:102DF000991F5A95A9F780959095BC01CD0108952A
:102E0000EE0FFF1F0590F491E02D0994A29FB001F1
:102E1000B39FC001A39F700D811D1124911DB29F0E
:102E2000700D811D1124911D089581E090E0F894AA
:102E30000C941A1710E0CFE8D0E004C0FE010E9405
:0E2E400000172196C039D107C9F7F894FFCFCB
:102E4E003F065B4F666D7D077F6F6339767B365C21
:102E5E0000000000C609C609C609D703D303D00374
:102E6E00000000008D0349034703D703D303440337
:102E7E00FB031F1C1F1E1F1E1F1F1E1F1E1F0000D9
:102E8E000000A2069C09BA00EF06EB00C900DD00A7
:102E9E0000000000F002E50202031C02DE02DB026B
:102EAE00D802000000001D029C0902031C026D02E4
:102EBE0085020402434C4F434B20696E2031326829
:102ECE00206D6F646500434C4F434B20696E20327A
:102EDE003468206D6F646500526F6F6D2054454DE0
:102EEE00504552415455524520697320006E616E13
:102EFE0000696E66006F7666002043656C736975B7
:102F0E0073000D0A00546F64617920697320002FDD
:102F1E00004348414E4745204252494748544E458A
:042F2E0053530000F9
:107E0000112484B714BE81FFF0D085E080938100F7
:107E100082E08093C00088E18093C10086E0809377
:107E2000C20080E18093C4008EE0C9D0259A86E02C
:107E300020E33CEF91E0309385002093840096BBD3
:107E4000B09BFECF1D9AA8958150A9F7CC24DD24C4
:107E500088248394B5E0AB2EA1E19A2EF3E0BF2EE7
:107E6000A2D0813461F49FD0082FAFD0023811F036
:107E7000013811F484E001C083E08DD089C08234E0
:107E800011F484E103C0853419F485E0A6D080C0E4
:107E9000853579F488D0E82EFF2485D0082F10E0AE
:107EA000102F00270E291F29000F111F8ED06801E7
:107EB0006FC0863521F484E090D080E0DECF843638
:107EC00009F040C070D06FD0082F6DD080E0C81688
:107ED00080E7D80618F4F601B7BEE895C0E0D1E017
:107EE00062D089930C17E1F7F0E0CF16F0E7DF06D8
:107EF00018F0F601B7BEE89568D007B600FCFDCFD4
:107F0000A601A0E0B1E02C9130E011968C91119780
:107F100090E0982F8827822B932B1296FA010C0160
:107F200087BEE89511244E5F5F4FF1E0A038BF0790
:107F300051F7F601A7BEE89507B600FCFDCF97BE46
:107F4000E89526C08437B1F42ED02DD0F82E2BD052
:107F50003CD0F601EF2C8F010F5F1F4F84911BD097
:107F6000EA94F801C1F70894C11CD11CFA94CF0C13
:107F7000D11C0EC0853739F428D08EE10CD085E9AC
:107F80000AD08FE07ACF813511F488E018D01DD067
:107F900080E101D065CF982F8091C00085FFFCCF94
:107FA0009093C60008958091C00087FFFCCF809118
:107FB000C00084FD01C0A8958091C6000895E0E648
:107FC000F0E098E1908380830895EDDF803219F02E
:107FD00088E0F5DFFFCF84E1DECF1F93182FE3DFCA
:107FE0001150E9F7F2DF1F91089580E0E8DFEE27F6
:047FF000FF270994CA
:027FFE00040479
:0400000300007E007B
:00000001FF
